:1040000000000320711801005D180100299D0000C7
:104010005D1801002F9D0000359D0000000000008C
:1040200000000000000000000000000011A40000DB
:104030005D18010000000000C1A40000E1180100AB
:104040005D1801005D1801005D1801005D18010098
:104050005D1801005D1801005D1801005D18010088
:104060005D1801005D1801005D1801005D18010078
:104070005D1801005D1801005D1801005D18010068
:104080005D1801005D1801005D1801005D18010058
:104090005D1801005D1801005D1801005D18010048
:1040A0005D1801005D1801005D1801005D18010038
:1040B0005D1801005D1801005D18010071E9000044
:1040C00071E9000071E9000071E9000071E9000088
:1040D0005D1801005D1801005D1801005D18010008
:1040E0005D1801005D1801005D1801005D180100F8
:1040F000000000005D18010095930000A1930000EE
:10410000A5930000A99300000DF6000019F6000029
:104110001DF6000021F6000025F6000031F6000033
:1041200035F6000039F6000099EE0000A5EE00001B
:10413000A9EE0000ADEE0000B1EE0000BDEE000003
:10414000C1EE0000C5EE00005D1801005D18010021
:104150005D1801005D1801005D1801005D18010087
:104160005D1801005D1801005D1801005D18010077
:104170005D1801005D180100000000000000000053
:1041800061180100F3180100F7180100FB18010085
:10419000000000005D1801005D1801005D180100BD
:1041A0005D1801005D1801005D1801005D18010037
:1041B0005D1801005D1801005D1801005D18010027
:1041C0005D1801005D1801005D1801005D18010017
:1041D0005D1801005D1801005D1801005D18010007
:1041E0005D1801005D1801005D180100000000006D
:1041F0005D1801005D1801005D1801005D180100E7
:104200005D1801005D1801005D1801005D180100D6
:104210005D1801005D1801005D1801005D180100C6
:104220005D1801005D1801005D1801005D180100B6
:104230005D1801005D1801005D1801005D180100A6
:104240005D1801005D1801005D1801005D18010096
:104250005D1801005D1801005D1801005D18010086
:104260005D18010010B5054C237833B9044B13B128
:104270000448AFF300800123237010BDA003002089
:104280000000000074D6010008B5034B1BB10349C0
:104290000348AFF3008008BD00000000A403002025
:1042A00074D601002DE9F0430D4687B0044641491C
:1042B0004148DFF8048117460BF083FA21463E4857
:1042C0000BF09CFA3D493C480BF07BFA2E4607EB7D
:1042D00005094E4505D016F8011B40460BF075FA4E
:1042E000F7E735480BF07AFA294603A80DF015FADE
:1042F0003B46002203A968460DF072FA03A80DF0B0
:10430000C7F9214603A80DF008FA2D4903A80DF0BE
:104310003CFA054603A80DF0BBF94DB129486946A2
:104320000DF01AFA68460DF0B3F907B0BDE8F08356
:10433000214603A80DF0F1F9234903A80DF025FA51
:10434000054603A80DF0A4F915B169461F48E7E733
:10435000214603A80DF0E1F91D4903A80DF015FA57
:10436000054603A80DF094F915B169461948D7E739
:10437000214603A80DF0D1F9174903A80DF005FA5D
:10438000054603A80DF084F915B169461348C7E73F
:10439000214603A80DF0C1F9114903A80DF0F5F964
:1043A000044603A80DF074F9002CBBD069460D48F3
:1043B000B6E700BF75790100B83700209679010093
:1043C000A27901000C040020AC79010064040020F3
:1043D000B979010058040020C5790100700400205B
:1043E000D17901007C04002013B50F490F480AF071
:1043F000F0FA01A90D480AF065FB044650B10C49DA
:104400000C480BF0DEF90A2221460A480BF04BFA61
:1044100002B010BD084907480BF0D3F90A220199F0
:1044200004480BF059FAF3E7F42B00209C04002019
:10443000E4770100B83700200D78010070B51E4CFC
:104440001E4D1F48224629460AF0F6FA064650B18C
:104450001C491D480BF0B5F931460A221A48BDE83F
:1044600070400BF020BA194917480BF0AAF92868D8
:104470000EF02EFA41EC100B022113480BF0F0FA6B
:10448000134911480BF09DF912490F480BF099F9A7
:1044900011490D480BF095F920680EF019FA41EC1E
:1044A000100B022108480BF0DBFA0C490648BDE866
:1044B00070400BF0A3B900BFF4030020A00400205B
:1044C0009C0400206C7A0100B83700209D7A01001E
:1044D000AB7A0100B07A0100B27A0100BD7A010026
:1044E00007B50AF0CBFF20B10C490D480BF086F957
:1044F000FEE70DF1060101A80AF07CFF60B9094949
:1045000007480BF07BF943F2C8200AF087FF0AF056
:10451000B1FF03B05DF804FB0349F1E7F87801004F
:10452000B8370020037901001379010038B5134C26
:10453000134D214628460AF04BFF124B1880D8B97C
:10454000114912480BF03DF90A2229880F480BF057
:10455000A8F90F490D480BF051F90E490B480BF023
:1045600030F9218809480A220BF09BF90A490748CB
:10457000BDE838400BF042B90849F8E7C403002011
:1045800030050020C603002029790100B83700203B
:104590003E79010042790100577901005B79010001
:1045A00013B50DF0B3F9114A1368C31AB3F57A7F46
:1045B0001AD30F4B106018680E4C0DF07FFC0022D0
:1045C0000092642340F2FF3120600DF057F80A4951
:1045D00020600A480BF0F5F8216808480A2202B06A
:1045E000BDE810400BF05FB902B010BD8C04002094
:1045F000080400200404002079780100B837002066
:10460000F8B54FF47A7605464E4347000024A6429B
:104610000FDD01210C200DF073FE28460DF0A8F9E6
:1046200000210C200DF06CFE28460DF0A1F93C4451
:10463000EDE7F8BDF0B5124B124D8BB00646009376
:1046400003F15D43A3F54033A3F53F730F46019398
:104650000FCD02AC0FC495E80F0002AD84E80F0047
:1046600000241DF80430B34204D1394655F8240023
:10467000FFF7C6FF0134082CF3D10BB0F0BD00BF2B
:1046800063646566C477010070B50F4E0F4D00245A
:104690003368A34217DD0E4B2968E05C0D4B53F8DD
:1046A0002430202801FB03F10AD1084605F045FB20
:1046B0002868022390FBF3F005F03FFB0134E7E7A5
:1046C000FFF7B8FFF4E770BD1800002030000020AD
:1046D00020000020040000202DE9FF41012001F00E
:1046E00007FB002211462948294D2A4CDFF8B080EB
:1046F000294F2A4E01F094FC294927480BF07EF8F7
:1047000000230121CDE900312A6821681F4801F00A
:10471000B9FB01F09FFB032815D04FF4FA7005F0A8
:104720000CFB414638460BF069F831461D480BF04A
:1047300065F800230122CDE9003221682A68134878
:1047400001F0A0FBE5E7184913480BF057F81749AB
:1047500011480BF036F8144912480BF04FF8134982
:1047600010480BF04BF802A8084901F073FC02A9AD
:1047700009480BF04DF802A8044901F06BFC02A9AE
:1047800008480BF045F804B0BDE8F081540500205E
:10479000280000202C000020B8370020D67A010025
:1047A000C07A0100A4040020E97A0100077B01001F
:1047B00010B5074B074C1968204640F25B7208F0B1
:1047C000B3F820460449BDE8104008F0B0B800BF77
:1047D0001C00002018040020A542000070B5194CF0
:1047E000194D1A4E174807F035FE50BB3146164892
:1047F0000BF004F81649204607F042FFC0B11549F6
:1048000028460AF0FBFF1449204608F08AF81349AD
:10481000204608F086F81249204608F082F811492F
:10482000204608F07EF81049204608F07AF8D9E7CB
:104830000E4928460AF0C5FF41F2883005F07DFA9E
:10484000D0E770BD18040020B8370020847801003C
:104850009A780100AC780100A2790100AC790100DE
:10486000B9790100C5790100D1790100BE78010054
:1048700030B51A4B1A4D18681A4C8DB00EF028F846
:104880002A46CDE900010A2103A80FF015FD03AA6D
:104890001549204607F0FCFF144B18680EF018F875
:1048A0002A46CDE900010A2106A80FF005FD06AA57
:1048B0000F49204607F0ECFF0E4B0F4A1B680A21F8
:1048C00009A80FF0F9FC09AA0C49204607F0E0FFFF
:1048D0000B490C480AF092FF0DB030BDA004002037
:1048E0001D7801001804002022780100F403002044
:1048F0002D78010004040020377801003A78010087
:1049000046780100B837002008B5112104480AF0A4
:1049100035FE01210220BDE808400DF0ADBC00BF0E
:104920009404002007B5294929480CF02EFFA0B3B4
:10493000012128480AF02EFE244927480CF025FFC3
:10494000002835D0022123480AF024FE23480CF029
:104950007BFFB5EEC00AF1EE10FA34DB1F480CF015
:1049600073FFDFED1F7AB4EEE70AF1EE10FA2AD8F2
:104970001A480CF069FFFF23FDEEC07A0093002374
:104980001946642217EE900A0CF078FE01460220C8
:1049900003B05DF804EB0DF025BB12490C480CF098
:1049A000F4FE0028C8D001210A480AF011FEC3E72E
:1049B0000C4909480CF0E9FE0028C7D0022105483F
:1049C0000AF006FEC2E70021E1E700BFEF78010030
:1049D0005804002094040020700400207C0400206F
:1049E0000000C842F4780100F7B5002300931A468E
:1049F00019462F4E2F4F3048304C314D0AF0A0FE53
:104A0000304809F0E3FF314638460CF086FE384660
:104A10002D4F224629460DF0EFFD314638460CF069
:104A20007CFE3846294F224629460DF0E5FD3146E9
:104A300038460CF072FE3846254F224629460DF0C6
:104A4000DBFD314638460CF068FE3846214F2246E1
:104A500029460DF0D1FD314638460CF05EFE294660
:104A60001D4D1E4E224638460DF0C6FD284600F06C
:104A700065FD22461A4928460DF0BEFD29463046FE
:104A800007F070FF2246174930460DF0B5FD164875
:104A90000AF072FD4FF4A072F021144808F014F9E6
:104AA000134B1F212222C3E9001203B0F0BD00BF47
:104AB000B17A01000C040020BC030020000000209B
:104AC000911601009C04002064040020580400207A
:104AD000700400207C040020C8030020180400207B
:104AE000B957000001C2000094040020A404002073
:104AF000F80300202DE9F041374C4FF6FF712046B6
:104B000008F0DCFB2046032108F0E4FB20464FF4CC
:104B1000FC6108F0E9FB0121204608F0E8FB204693
:104B200007F07DFF0646204607F07CFF02252B4953
:104B300096FBF5F2032312B290FBF3F3204609F043
:104B40002DF9204607F06BFF0646204607F06AFF66
:104B500096FBF5F2224912B200FA05F30927204626
:104B600093FBF7F309F01AF9204607F058FF0646C1
:104B7000204607F057FF96FBF5F21A4912B200EBF8
:104B8000800090FBF7F3204609F008F94FF47A70A3
:104B900005F0D3F82946204608F09CFB20464FF448
:104BA000787108F0A1FB0121204608F0A0FB204607
:104BB00007F035FF0646204607F034FF96FBF5F276
:104BC000C0000A2312B290FBF3F307492046BDE868
:104BD000F04109F0E3B800BFA404002055780100BB
:104BE0005D780100607801006678010073B5574C6C
:104BF0004FF6FF71204608F061FB322500224FF48A
:104C0000787611464FF4A0732046CDE9005609F09E
:104C1000E5F92046032108F05DFB20464FF6FF71C1
:104C200008F062FB0F23A0224949204609F0B6F89C
:104C30002A4620460096BE23A02109F017F94FF41A
:104C4000A0738C2220460096002109F06BF92046C3
:104C5000002108F049FB2046022108F03BFB4123DC
:104C600050223C49204609F099F82046032108F0DB
:104C700031FB394BD3ED007AFDEEE77A2A4617EE89
:104C8000901A5F23204609F091F85F236E22334982
:104C9000204609F083F82046022108F01BFBA023E0
:104CA00055222F49204609F079F82046032108F0C3
:104CB00011FB2C4BD3ED007AFDEEE77A2A4617EE76
:104CC000901ABE23204609F071F8BE236E222649B1
:104CD000204609F063F82046022108F0FBFA412340
:104CE000F0222249204609F059F82046032108F015
:104CF000F1FA1F495F23C8220988204609F056F8B7
:104D00005F234FF48C721B49204609F047F8204678
:104D1000022108F0DFFAA023F0221749204609F00B
:104D20003DF82046032108F0D5FA1449BE23C822D5
:104D30000988204609F03AF81149BE234FF48C72D5
:104D4000204602B0BDE8704009F028B8A404002055
:104D5000F7790100037A0100A0040020AE7A010077
:104D60000F7A0100F4030020187A01004A7B010049
:104D7000C4030020577901001C7A0100300500208F
:104D80003E79010010B54FF4E131234C23480BF07C
:104D9000DFF9234809F01EFF2046002108F08CFAB5
:104DA0002046032107F0ECFF01210C200DF064FAEE
:104DB000FFF7A0FEFFF768FC2046002108F07EFA0E
:104DC000184920460AF01AFDFFF786FC16492046CE
:104DD0000AF014FDFFF7ECFC144920460AF00EFD22
:104DE000FFF702FB124920460AF008FDFFF778FBA7
:104DF0002046104C10490AF001FDFFF785FD2068A0
:104E000002210DF039FA606802210DF035FABDE893
:104E10001040FFF7EBBE00BFA4040020B83700200D
:104E2000F42B0020147B0100247B0100347B010063
:104E3000427B0100F80300204E7B010073B54FF662
:104E4000FF713948394C08F039FA4FF4787500226F
:104E500032231146CDE9003533484FF4A07309F0F1
:104E6000BDF80321304808F035FA4FF6FF712E489F
:104E700008F03AFA0F23A0222D492B4808F08EFFA4
:104E80000021294808F030FA0521274808F022FAC5
:104E90002548266807F0C6FDA0223146022390FB74
:104EA000F3F321481BB208F081FF03211E4808F0EC
:104EB00011FA5F23F0221F491B4808F06FFF4FF4DF
:104EC000A0730095B4220021174809F02BF823683D
:104ED0001E2B09DC0321144808F0FCF9C823A0228A
:104EE0001549114808F05AFF2368452B09DD0321B5
:104EF0000D4808F0EFF9C823A02210490A4808F02D
:104F00004DFF23681F3B262B0CD80321064808F0D1
:104F1000E1F90B490448C823A02202B0BDE8704063
:104F200008F03CBF02B070BDA404002004040020BF
:104F3000217A0100BE7A0100307A0100397A01003D
:104F4000417A010037B52C4C4FF6FF71204608F02E
:104F5000B5F94FF47875002232231146CDE90035BA
:104F600020464FF4A07309F039F82046032108F0D9
:104F7000B1F920464FF6FF7108F0B6F920460095CA
:104F80004FF4A0738C22002108F0CCFF0F23A02245
:104F90001A49204608F002FF2046002108F0A4F933
:104FA0002046022108F096F9412323221449204685
:104FB00008F0F4FE2046032108F08CF95F23A022BC
:104FC0001049204608F0C8FE2046022108F082F968
:104FD0009B2337220C49204608F0E0FE204603219F
:104FE00008F078F90949B923A022204603B0BDE8AA
:104FF000304008F0B1BE00BFA40400204F7A010089
:105000005F7A01000C040020647A0100640400202F
:1050100070B50CF07BFC204A1368C31AC72B2BD940
:105020001E4D106028681E4C0DF094F92E46E0B914
:1050300023780BBB0123306823700DF08BF91949DD
:105040000B68D0B9032293FBF2F202EB42029B1AE7
:1050500001330B600B68022B15D0032B17D0012BEB
:105060000AD1BDE87040FFF7C1BD68680DF072F964
:105070000028DDD00023237070BD012BCCBF03F1CD
:10508000FF330323E5E7BDE87040FFF7D7BEBDE877
:105090007040FFF757BF00BF88040020F8030020CE
:1050A000000400201400002008B50CF02FFC124A68
:1050B000136841F28731C31A8B421CD91060FFF785
:1050C000BDF9FFF733FAFFF76BFAFFF7D1FB0B4B94
:1050D0001B68022B07D0032B09D0012B0BD1BDE895
:1050E0000840FFF783BDBDE80840FFF7A7BEBDE855
:1050F0000840FFF727BF08BD9004002014000020DF
:1051000008B5084807F0A6F908B9FFF767FB054896
:1051100007F0C4FAFFF77CFFFFF7C6FFBDE80840C1
:10512000FFF700BC1804002007B5002300931A46BF
:10513000194603480AF004FB03B05DF804FB00BF06
:1051400034050020002070477047000007B5002399
:1051500000931A46194603480AF0F2FA03B05DF8C4
:1051600004FB00BF3C05002007B5002300931A464E
:10517000194603480AF0E4FA03B05DF804FB00BFE7
:105180004405002010B58368044613B1032201468C
:105190009847204610BD000007B5002300931A462B
:1051A000194603480AF0CCFA03B05DF804FB00BFCF
:1051B0004C05002073B50024124D0094234622466E
:1051C000214611480AF0BCFA0126284600F024FCCA
:1051D00033460096A822C02128460AF0B1FA334689
:1051E0000096A822C02105F108000AF0A9FAFF23C1
:1051F00000941A46194605F110000AF0A1FA02B00F
:1052000070BD00BF540500206C05002000B591B0B2
:1052100000F028FC18B9002011B05DF804FB10A8BC
:105220000A2340F8403D402104F0CAFB0028F2D197
:105230009DF80000F0E7000007B5002300931A4630
:10524000194603480AF07CFA03B05DF804FB00BF7E
:105250007405002008B50368DB6A9847003018BF62
:10526000012008BD13B503685C6B054B00934B68C8
:10527000019369464FF0FF33A04702B010BD00BF55
:10528000C8D10100036810B49C6B4FF0FF33A446F3
:105290005DF8044B604713B502AB026803F8011DCB
:1052A000546819460122A04702B010BD07B502A9F3
:1052B000002301F8013D036801225B6A984700283A
:1052C000A8BF9DF8070003B05DF804FB7047704766
:1052D000002070470020704710B5102104460DF0E3
:1052E00090F9204610BD08B5FFF7F6FF08BD10B5D0
:1052F000102104460DF085F9204610BD08B5FFF7D2
:10530000F6FF08BD10B5C46844B1206804F0DFF9A9
:1053100020460421BDE810400DF073B910BD10B552
:10532000C46844B160680DF0EDFE20461821BDE868
:1053300010400DF066B910BDF0B585B00D460446BD
:105340000021684616461F460AF006FA69462846B6
:1053500000F092FB50B123685D6B054B0293019BFB
:10536000039332463B4602A92046A84705B0F0BD4C
:10537000C8D10100036810B504469B689847A3682C
:10538000013BA3602BB923682046DB68BDE81040D1
:10539000184710BD436810B5044643B900680DF0C6
:1053A000A9FE606018B901232375002010BDE368D1
:1053B0002BB1A268934204BF0023C4E902336068A2
:1053C0000028F2D02268E1688A42EED9521A0823F6
:1053D0000144206904F087F9002804DA04F051F947
:1053E0000B28E0D1E1E7E3680344E360DEE738B58A
:1053F0008469054664B1D4E9023098420AD0C01AE3
:10540000AB691B7D04461BB12B6828469B6A9847F5
:10541000204638BD2369002B06DB2046FFF7BAFF84
:105420000028EDDA012323750020E9E738B5846907
:10543000D4E902239A4205460BD0D4E90123D45C77
:10544000AB691B7D1BB12B6828469B6A9847204699
:1054500038BD2046FFF79EFF0028EED14FF0FF3405
:10546000EEE72DE9F041044615460F4621B94FF00D
:10547000FF352846BDE8F081002AF8D0D0E90223A4
:105480009A4224D0D4E90262961BB54224D92368FB
:10549000A5EB06089B1A984504D82046FFF77AFF2B
:1054A000804519D9D4E901133246194438460DF024
:1054B00043FEA3683344A3603744B8F1000FD8D04B
:1054C0002046FFF767FFC0B9A5EB0805D1E7FFF756
:1054D00061FF0028D6D1CAE7D4E90123012D02EBF0
:1054E000030104D02A4638460DF026FE01E0D35CC5
:1054F0003B70A3682B44A360BBE7D4E90236F61ADD
:105500004645616828BF46461944324638460DF084
:1055100013FEA3683344A360A8EB0608CCE738B5B4
:1055200004468069FFF79DFFA3691B7D05461BB1FB
:10553000236820469B6A9847284638BD00224FF4CE
:105540007A71C0E9012105490160C0E90422C0E97E
:10555000062280F820204262704700BFC47B010011
:1055600003690BB1186870474FF0FF30704713B5EF
:105570001C46FFF7F5FF009413460A4640F6FF71FC
:1055800004F09BF802B010BD30B50D464FF47A71AF
:1055900085B0694304460AF039FD0023CDE9005384
:1055A00002936A46102341F206012046FFF7DFFF0F
:1055B000002808DB10236A4641F205012046FFF768
:1055C000D6FF05B030BD4FF0FF30FAE72DE9F04FC0
:1055D0008BB082468B460392FFF7C2FF9AF82040B9
:1055E0000646002C4CD0002827DB00F01F030122C8
:1055F00002FA03F345090293DDF80C900AAB00248C
:105600004FF00A0803EB85050027CDE90477029ADD
:1056100055F8183C134345F8183C00220023CDE907
:1056200006231B4B089306AB009304AA3B4639465E
:10563000701C04F07BF8B84201DA002420E055F831
:10564000183C029A1A421FD008234A46594630464F
:1056500004F060F8002809DD039B0444A3420FD93D
:105660008344A9EB00094FF00A08CDE70CD004F001
:1056700008F80B2808D0DAF8003050469B6A9847A3
:1056800020460BB0BDE8F08FB8F10108BCD1F7E7B8
:1056900040420F00036870B51B69054698470446F1
:1056A00008B34FF480600DF025FD0646D8B12846BA
:1056B000FFF756FFB4F5806F22464FF0080328BF6E
:1056C0004FF48062314604F00EF8002808DA2B68A7
:1056D00028469B6A98473046BDE870400DF012BDE1
:1056E000241AE4D1F7E770BD13B504460CF00EF9A7
:1056F00094F82030E3B1A36AC01AB0F5FA7F17D945
:105700002046FFF72DFF082300220DF1070103F0CB
:10571000EAFF03F0B6FF6F2812D00DDC20280FD06F
:1057200068280DD00CF0F2F80123A06284F8203034
:1057300094F8200002B010BD712801D08028F0E755
:105740000023F3E710B50446006828B14368013B25
:1057500043600BB9FFF70EFE204610BD7FB503690D
:10576000029304AE436946F8043D002504460561F2
:1057700045613046CDE90055FFF7E4FF01A8FFF78A
:10578000E1FFA3690293A561E369E56130460393F4
:10579000FFF7D8FFA3690293A561E369E56130468D
:1057A0000393CDE90055FFF7CDFF01A8FFF7CAFF2E
:1057B00084F8205004B070BD38B50546074B45F855
:1057C0001C3B0446FFF7CAFF2846FFF7BBFF04F166
:1057D0001400FFF7B7FF204638BD00BFC47B0100AF
:1057E00037B50023044610200D46009101930CF0BC
:1057F0003DF90123C0E90133074B0360009B226898
:10580000C56023606368606002A8009240F8043DB0
:10581000FFF798FF03B030BD8C7B010037B5002344
:10582000044610200D46009101930CF01FF901234E
:10583000C0E90133074B0360009B2268C560236009
:105840006368606002A8009240F8043DFFF77AFFA9
:1058500003B030BDA87B01002DE9F04106468EB0B3
:10586000884615460121002202201F4603F05CFFF6
:10587000041E54DB0022032103F0A8FF042140F0A2
:105880000102204603F0A2FF102200210AA8D8F846
:1058900004800DF075FC0223284600258DF8293080
:1058A000CDF82C8003F094FFCDE904550EAB6209CE
:1058B00003EB820204F01F0101238B4052F8281CE5
:1058C000ADF82A000B4342F8283C00220023CDE922
:1058D00006234FF47A737B4310220AA920460893CB
:1058E00003F0F7FEA8420ADA03F0CBFE772806D0D1
:1058F000204603F0ECFE28460EB0BDE8F081002FF4
:10590000B4BF002306AB00930023601C04AA194611
:1059100003F00CFF051E04DA204603F0D8FE002534
:10592000E9E7E5D003AB0093042702AB41F207029D
:1059300040F6FF712046039703F0A5FE0028EBDB3D
:10594000029D002DE8D12A460321204603F03EFFA8
:10595000394620F00102204603F038FF38460CF0AB
:1059600085F80146046006F11000FFF739FF1820A2
:105970000CF07CF84FF48063C0E900350146C0E9C3
:1059800002550575046106F11800FFF747FF0BF09B
:10599000BDFF0125B06286F82050ACE707B50023B3
:1059A00000931A461946034809F0CAFE03B05DF891
:1059B00004FB00BF7C05002007B5002300931A46B6
:1059C0001946034809F0BCFE03B05DF804FB00BFB4
:1059D0008405002008B519B10968104609F0C2FE17
:1059E000034B4FF480411868BDE8084004F0F4BA56
:1059F000A405002070B5D0E900560446AE4205D09B
:105A000005F10800FFF7BEFB2035F7E7206808B175
:105A10000CF030F8204670BD70470000034B014683
:105A2000186808B104F0D8BA704700BFA405002078
:105A3000034B0146186808B104F0A8BA704700BFCC
:105A4000A4050020064B13B50446186830B1009138
:105A500001230022214604F015FA204002B010BDB7
:105A6000A4050020024B187808B1024B1878704743
:105A7000A1050020A805002030B50C4687B00546DA
:105A80000021204609F06EFE41F288314FF40050AB
:105A9000FFF7D8FF4FF40050FFF7CAFF2346114A23
:105AA00001A9284603F0E6FD70B9019911B120461D
:105AB00009F058FE4FF40050FFF7B0FF6068003067
:105AC00018BF012007B030BD0530F3D14FF47A6123
:105AD0004FF48040FFF7B6FF4FF48040FFF7A8FF78
:105AE000E8E700BFD559000038B5002383608B6814
:105AF00004460D462BB102229847EB68E360AB6881
:105B0000A360204638BD38B50B6803600D464B686E
:105B10004360044608310830FFF7E6FFAB69A36134
:105B20002B7F2377204638BD2DE9F04108780128E6
:105B300094B00E4626D100F0AFFADFF8B08100270E
:105B4000D8E900135B1AB7EB631F80F0C98001EB43
:105B5000471101A8FFF7D7FF029B1BB9059A0AB9A5
:105B6000079A52B19DF820203078824201D01A2A3B
:105B700003D1002B00F09B80984703A8FFF702FB9E
:105B80000137DDE7022806D1062000F047F908209A
:105B9000FFF744FFD1E7032806D1FF2000F03EF9CC
:105BA0007820FFF745FFC8E7042804D1002000F063
:105BB00035F91020ECE705282CD191F82B40C92CA1
:105BC00019D1012000F02AF97020FFF731FF022CD3
:105BD00003D0C72CB1D9CA2CAFD0434800F038FA53
:105BE0000028AAD0002211463F4800F019FA3E488A
:105BF00000F0C8F9A1E704F13603DBB2012B01D8AC
:105C00000420DFE704F0FB03C82BDBD0022CDBD041
:105C10000620D7E7072804D1032000F0FFF8302042
:105C2000B6E7082804D1002000F0F8F82020B8E7F3
:105C30000E2801D10120ABE70F2801D10520B0E7E4
:105C4000102801D10420A3E7112807D12648FFF727
:105C5000DDFA00287FF471AF0420A2E7152801D1F6
:105C6000802095E7162802D14FF4F06099E71728B5
:105C700002D14FF480708BE7182802D14FF4E06016
:105C80008FE7192802D14FF4407081E714287FF480
:105C900054AF0B79012B01D1022079E70BB95020C9
:105CA00076E7022B7FF449AF4FF4A06070E7059BC5
:105CB00093B1351D8DF803000FCD09AC0FC40FCD86
:105CC0000FC495E80700069B84E8070009AA0DF1B8
:105CD000030103A8984750E73046079B98474CE7D5
:105CE000002014B0BDE8F081540500209405002088
:105CF0002DE9F0418CB00546FFF7B4FEA8422ED046
:105D000078BB0DB3214B1A789846EAB9204E347807
:105D10008CB9204F3B683BB904F0A6F8386078B3E3
:105D20004FF4005104F058F903F016FF1A4803F03D
:105D30004BFF012333700CA90020012301F8300D23
:105D400088F80030FFF7F0FE03F054FE142005F051
:105D500047FD284603F048FEB0B9104B1D700124E2
:105D60000EE0002DF0D1094B1C78002CF7D01D70EF
:105D700003F040FE284603F0F1FE012003F0EEFEA2
:105D800020460CB0BDE8F0810024F9E7A105002011
:105D9000A0050020A4050020295B0000A805002024
:105DA00008B5FFF75FFE00F001038B420AD031B166
:105DB00040F00100C0B2BDE80840FFF799BF00F015
:105DC000FE00F8E7012008BD13B500242246214655
:105DD00000942346064809F0B3FC0648064A0749E2
:105DE0008460C0E9004402B0BDE810400CF004BC7F
:105DF0008C0500209405002000000020F5590000CB
:105E000007B5002300931A461946034809F098FC89
:105E100003B05DF804FB00BFAC05002070B50B4C6F
:105E200023680646254633B904F01EF8206010B9F1
:105E3000074B1E7070BD6FF07F41286804F0A6F814
:105E400031462868BDE8704004F0C6B8BC050020A3
:105E50003400002010B5094C226812B9084B18789C
:105E600010BD03F0ABFD10B10620FFF7D7FF0021F6
:105E7000206804F08BF8C0B2F2E700BFBC05002038
:105E8000340000202DE9F0438BB00D463A480793CB
:105E900001211446129F9DF84C80FFF781FF18B92D
:105EA00004200BB0BDE8F083002DF9D02B78002B37
:105EB000F6D028460EF0A9FA1F288146F0D8C4B1C2
:105EC00020460EF0A2FA4028EAD82C4E079B93B148
:105ED00097B90AA9032301F8013D012207A803F09D
:105EE00091FD00282BDA03F085FD012003F07CFDF5
:105EF000D6E72646EAE717B320460EF086FA4FF0BB
:105F0000FF330021CDE903310623CDE90190009351
:105F1000324623462946384603F03BFD0130BFD0C8
:105F2000174B1878F8B903F041FE45F20303984285
:105F3000B6D0B8F1000F1AD1FFF78CFFB1E72846B1
:105F40000EF063FA074620460EF05FFA4FF0FF337B
:105F50000022CDE9013200903B46224631462846D8
:105F600003F00CFDDAE7002003F0FFFDE1E703F0AA
:105F700025FD0028E0D093E75405002004004000F0
:105F8000C005002070B50121ACB02348FFF708FF21
:105F900040B19C22002105A80DF0F2F805A803F0FD
:105FA0003CFD08B9042021E005A8DDE929540EF0E4
:105FB0002CFA2D0F0646DCB9CDE9015400940346B6
:105FC0002246214605A803F0D9FC0130EAD0134B44
:105FD0001878C0B903F0EAFD45F203039842E1D016
:105FE000FFF738FF032812D1FFF734FF2CB070BD44
:105FF0000EA80EF00AFA0023CDE9015300903346B3
:106000000EAA2146DEE7002003F0D7FDE8E703F003
:10601000D5FC0028E8D0C5E754050020C0050020C5
:1060200010B50C46FFF71EFDC30701D4002010BDBC
:1060300003F0C2FC01460028F8D124B10348BDE8B2
:106040001040FFF7ADBE0120F1E700BF540500206E
:10605000002070471FB50446FFF704FD28B920460D
:1060600009F066FB204604B010BD01A9002003F032
:1060700083FD0199204609F06FFBF3E707B5002384
:1060800000931A461946034809F05AFB03B05DF81D
:1060900004FB00BFB405002010B503F0D3FC0E4C88
:1060A000208058B180010BF0E3FC0C4B01461860D6
:1060B000208803F0C9FC08B100232380084B00228C
:1060C0004FF480501A60FFF7A9FC4FF40060BDE860
:1060D0001040FFF7ADBC00BFCC050020D00500206C
:1060E000D405002007B5002300931A46194603483B
:1060F00009F026FB03B05DF804FB00BFC4050020D7
:1061000007B5002300931A461946034809F018FB07
:1061100003B05DF804FB00BFD805002007B50023DD
:1061200000931A461946034809F00AFB03B05DF8CC
:1061300004FB00BFE005002007B5002300931A46CA
:106140001946034809F0FCFA03B05DF804FB00BFF0
:10615000E805002007B5002300931A4619460448B5
:1061600009F0EEFA034803B05DF804EB09F0E0BA79
:1061700010060020F00500207047000070B50546AD
:10618000006A0C4628B9184B184A194826210CF009
:1061900047FF0B7A4BB901F0EDFA064630B9636858
:1061A0009A690AB901229A6170BD0026286A61685D
:1061B00003680431DB68984728B163689A69002A4C
:1061C000F2D19861F0E7237A002BEDD13146286AAD
:1061D00001F060FA0028F0D12B682146DB692846DF
:1061E00098470028E9D1DFE7047C0100AC7C01007E
:1061F000297C010010B5242104460CF002FA204647
:1062000010BD0162C160704701207047036840F211
:1062100013421B6A184708B5036941691A68184692
:10622000D2699047002008BD70B505460C468E180F
:10623000B4420CD02B6828469B69984728690368AC
:106240005B6998470028F3DB04F8010BF0E70020B6
:1062500070BD2DE9F0410646884617460024BC4231
:1062600011D230693D1BFF2D036828BFFF251B6B32
:10627000294698473069036808EB04015B682A46A1
:1062800098470444EBE70020BDE8F081006908B5B9
:1062900003681B699847003018BF012008BD0069DA
:1062A0000368DB6A184741F2180241F21403C3582D
:1062B0008058181A48BF00F58050704741F2180303
:1062C00041F21402C158825891421DBFC358C018F0
:1062D000007D4FF0FF30704710B50446006909F0AB
:1062E000FDFB41F214020023A35041F21802A35017
:1062F00004F58054C4F81C31C4F8203110BD0000EE
:1063000010B5034B0360044600F05EFE204610BD4E
:106310000C7D010010B50446FFF7F2FF204618215E
:106320000CF06FF9204610BD10B5044672B6036834
:106330001B699847002801DD62B610BD41F2391390
:106340000122E25462B604F589504FF0FF311C304F
:10635000BDE8104001F0E6B810B4D9B172B600F54E
:1063600080521C32D2F80041D2F804319C42ADBFB9
:10637000D2F80031D2F80431D2F80021D2F8042149
:10638000ABBFC3F1FF039B1A9B1803F1FF33994284
:1063900003D862B65DF8044B7047C91A00F58A53FA
:1063A000196062B618464FF0FF3104305DF8044BB7
:1063B00001F0B8B800F580521C32D2F80031D2F8A2
:1063C00004115B1A48BF03F58073002BF5D10069F7
:1063D00009F09BBB00F580531C33D3F80011D3F8B0
:1063E00004219142A1BFD3F80001D3F80431C0F1D8
:1063F000FF00C018BFBFD3F80401D3F80031C01AA2
:1064000000F1FF30704730B5034641F2180141F208
:10641000140240589A5890421BBF5A58D2184FF055
:10642000FF30107D1FBF5A580132C2F30B025A5081
:1064300041F228129A5CFF2A16D041F2140141F26F
:1064400018045D581A5995420FDB5A581959C2F56C
:106450007F620F320A440A2A06DD41F2301241F20D
:1064600034119A585B58136030BD1A595958521A52
:10647000013AF0E72DE9F84300251F464FF47A73FF
:10648000C0E90153274B044689469046294640F807
:10649000143B4FF480520CF073FE41F2140304F5E8
:1064A0008056E55041F218031C364FF48072E550D7
:1064B000294630460CF064FE41F2391304F5895048
:1064C000C6F800512946C6F804511C30E55400F0C6
:1064D000F8FF04F58A5318461D602946043000F081
:1064E000F0FF41F2241341F22512C4F8109004F891
:1064F000038041F22613A7549DF82020E25441F274
:1065000027139DF82420E25441F228139DF82820F7
:10651000E25441F238139DF82C20E2542046BDE8A5
:10652000F88300BF3C7D010030B585B0FF24CDE984
:1065300002449DF8244001949DF8204000940546B3
:10654000FFF798FF284605B030BD10B50446006936
:1065500009F0F8FA28B1206909F004FB206909F074
:10656000F6FA206909F0DFFA002838D0206909F02E
:10657000F9FA41F2140241F21801A35861580133AB
:10658000C3F30B038B421FBFA15809190875A35011
:1065900041F22813E35CFF2B16D041F2140241F2C2
:1065A0001801A058635898425BDBA3586258C3F5A2
:1065B0007F630F331344092B06DC41F22C1341F2A5
:1065C0003412E358A2581A6041F23913E25C32B136
:1065D000002204F58950E2541C3000F08BFF206942
:1065E00009F0BBFA002830D004F580531C33D3F8EF
:1065F0000021D3F804112069521A48BF02F58072B5
:10660000002A33D0D3F80411D3F8002191421FBFE0
:10661000D3F80421995CD3F80421013216BFD2B219
:106620004FF0FF31C3F80421C9B209F09FFA04F515
:106630008A531A684AB11A68013A1A601B6823B96A
:1066400004F58A50043000F055FF206909F070FA13
:1066500078B1206909F070FA2069BDE8104009F0AE
:106660005EBA6358A2589B1A013BA4E709F089FA65
:10667000EBE710BD2DE9F041074600690C4609F033
:106680006CFA07F5805808F11C0800283DD1264D0A
:10669000264ED8F80031D8F804210133DBB29342FA
:1066A0001FD1EFF31083DB0712D46B68C3F3080329
:1066B000002BEED0103B9BB21AB2002ABBBF03F0F6
:1066C0000F03043B92195B19ACBF92F800331B7E99
:1066D000386909F042FA0028DBD03846FFF735FF69
:1066E000D7E7D8F80031D8F804210133DBB2934260
:1066F0001EBFD8F8002108F80240C8F800313869F8
:1067000009F03BFA0120BDE8F081D8F80031D8F853
:1067100004219B1A48BF03F58073002BB7D1214693
:10672000386909F023FAEDE700ED00E000E100E050
:1067300001F0F001A1F1300358425841704701F4D3
:106740007061B1F5007F08D0B1F5407F07D0B1F599
:10675000807F0CBF0520002070470620704707206F
:10676000704701F00F01012904D002290CBF01205C
:1067700002207047002070472DE9F34141F22413B5
:106780000446364DC05C182606FB0053884693F934
:10679000081017460BF000FE41F22513E05C06FBE3
:1067A000005393F908100BF0F7FD41F22713E35C57
:1067B000022B0AD141F23813E05CFF2805D006FB1A
:1067C000005696F908100BF0E7FD41F22816A05D7F
:1067D000FF2819D001210BF04FFDA25D1823534370
:1067E000E918EA561E4BD20141F22C1013442350F3
:1067F0001C4B134441F23012A350496801228A40D5
:1068000041F2341162501A60012243461146206958
:1068100009F08CFB39462046FFF791FF39460546C3
:106820002046FFF79EFF394602462046FFF780FFCD
:106830002946009013462069012209F021F941F20E
:1068400026132069E25C41F22713E15C09F034F978
:10685000206902B0BDE8F04109F04DB908C9010056
:10686000188000411480004170B504460E4615465C
:1068700000F098FB024B2360C4E90465204670BD1C
:106880000C7D01001B0241F0807112049BB270B5B7
:106890000B4302F47F010268049D126B0446194306
:1068A00090472368294620461B6BBDE87040184777
:1068B00013B502AB026803F8011DD2F8B0401946C7
:1068C0000122A04702B010BD13B502AB026803F865
:1068D000011DD2F8B04019460122A04702B010BDF8
:1068E00013B502AB026823F8021DD2F8B040194676
:1068F0000222A04702B010BD13B502AB026843F8F4
:10690000041DD2F8B04019460422A04702B010BDC1
:1069100007B502A961E9022303680822D3F8B03061
:10692000984703B05DF804FB13B502AB026803F8A7
:10693000011DD2F8B04019460122A04702B010BD97
:1069400013B502AB026823F8021DD2F8B040194615
:106950000222A04702B010BD13B502AB026843F893
:10696000041DD2F8B04019460422A04702B010BD61
:1069700007B502A961E9022303680822D3F8B03001
:10698000984703B05DF804FB07B5036802A921ED41
:10699000010AD3F8B0300422984703B05DF804FB35
:1069A00007B5036802A921ED020BD3F8B030082225
:1069B000984703B05DF804FB37B5036802AD0446A1
:1069C00045F8041D9B6A0421984723680422D3F8E4
:1069D000B03029462046984703B030BD03689B6C11
:1069E000184770B5036804461B6B0E46154698475A
:1069F0002368324629462046D3F8B030BDE87040BF
:106A0000184703681B6B184703681B6A184703681D
:106A10009B6A18478A4203D083690BB912238361AA
:106A20007047F7B51E4603680D46D3F8803001A9BC
:106A300004461746984701990B0E012B03D0A36912
:106A40000BB90623A361A36963B9C1F307433B6094
:106A5000C1F30723336023682970D3F88030089985
:106A60002046984703B0F0BD37B50D4602A9002374
:106A700001F8013D03680446D3F8B4300122984779
:106A8000A3692BB99DF80730003318BF01232B7081
:106A900003B030BD03680122D3F8B430184703684F
:106AA0000222D3F8B430184703680422D3F8B43074
:106AB000184703680822D3F8B43018470368012246
:106AC000D3F8B430184703680222D3F8B43018471B
:106AD00003680422D3F8B430184703680822D3F8B7
:106AE000B430184703680422D3F8B4301847036859
:106AF0000822D3F8B430184737B503680D469B6FAA
:106B00000DF10701044698479DF80720042A03D990
:106B1000A3690BB91423A36123682946D3F8B430C1
:106B20002046984703B030BD0368D3F89830184723
:106B300038B503680446D3F880300D469847A369FA
:106B40000BB100232B6038BD03681B6F184737B5A6
:106B5000036804469B6F0D460DF107019847A36932
:106B60002BB99DF807305A1E534253412B7003B086
:106B700030BD11607047704710B5011D04460C30E0
:106B800000F064FA0023A36110BD031D10B5044694
:106B900003C983E80300194604F10C0000F056FA1B
:106BA0000023A36110BD10B51C2104460BF029FD84
:106BB000204610BD10B50446806928B929B104F1FA
:106BC0000C0000F06BFAA06110BD0D23A361FBE780
:106BD000012AF7B504460F4615461E4606D80C4B4B
:106BE0000C4A0D4840F251110CF01AFA03680DF1ED
:106BF00007019B6F9847A36943B99DF80710A94205
:106C000039BF57F8213033601223A36103B0F0BDC0
:106C1000707D0100907E0100837D010010B5044667
:106C2000806928B929B104F10C0000F015FAA061BF
:106C300010BD0D23A361FBE7036870B50446D3F8CC
:106C400080300D4616469847A06978B9A38A29680E
:106C50008B4207D32269326022695B1A0A4422619F
:106C6000A38270BD09232860A361FAE700232B608B
:106C7000F7E70000012A2DE9F04105D80E4B0F4A35
:106C80000F488F210CF0CCF90024122651F8247003
:106C90009F42E5B205D1036829469B6ABDE8F041F1
:106CA00018470134A24202D1856905B98661E5B26F
:106CB000AA42EBD8BDE8F081707D0100E27E0100C0
:106CC000837D010030B5486803680C4687B0DB68F7
:106CD0009847606805AA036800921D6E03AA04AB7A
:106CE0000DF10B01A8476368986940B99DF80B3016
:106CF000022B06D12368059A9A4218BF072007B0D5
:106D000030BD0720FBE770B5054640680C460368B8
:106D100049685B6904319847A86861680368BDE801
:106D20007040DB68184700004B689B6970B50446EB
:106D30000D46A3B9C3692BB9094B0A4A0A48302149
:106D40000CF06EF904F024FFE369834223682946BE
:106D500020460CBF9B695B69BDE87040184770BD59
:106D60003B7F01001E8001006E7F010038B50546A3
:106D7000C0680C4628B9134B134A792113480CF00C
:106D80004FF9496803680431DB68984720B16368AC
:106D90009A69B2B9986114E0237A93B9A86918B9CD
:106DA0000B4B094A9121E9E703682146DB699847C3
:106DB0000028ECD12B682146DB692846984700283B
:106DC000E5D138BDBD7F0100668001006E7F010006
:106DD000EB7F010073B50546806803689B689847A0
:106DE000044660B169680B6868469B689847009ED6
:106DF00046B9A86803682146DB68984734462046B0
:106E000002B070BD236869469B6820469847F6E744
:106E100070B50D46044608461646FFF7DBFF2B69A2
:106E200026720133C4E900302B61204670BD4369EE
:106E300010B40C4623B1204611465DF8044B1847A8
:106E40005DF8044B70474EF64A7303607047704715
:106E5000006830B50A4441F2210591420CD011F886
:106E6000013B082480EA032358001B0448BF684004
:106E7000013C0346F8D1F0E780B230BD01207047F5
:106E80007047000008B529B9034B044A0448232180
:106E90000CF0C6F8416008BDE5800100FF810100EB
:106EA000ED80010043682DE9F34104460F462BB9FC
:106EB000164B174A174853210CF0B2F800F1080896
:106EC000404600F0ECFAFD8860683968ADB22A46A9
:106ED000ADF80450FFF7BCFF2368ADF806000422AC
:106EE000DB690DEB020120469847064630B923685E
:106EF0003968DB692A46204698470646404600F036
:106F0000D8FA304602B0BDE8F08100BFBA80010077
:106F10006C810100ED8001004368F7B504460E4620
:106F20002BB91D4B1D4A1E4829210CF079F800F1A0
:106F30000C07384600F0B3FA236804221B6A0DEBF5
:106F40000201204698470546D8B9BDF80420B38809
:106F50009A4215D8236831681B6A2046984705462F
:106F600078B9384600F0A5FA3168BDF804206068A9
:106F7000FFF76EFFBDF80630834208D0082503E016
:106F80001025384600F095FA284603B0F0BDBDF84C
:106F90000430F380F8E700BFBA800100B48101003B
:106FA000ED80010010B5074B0360002304464360E9
:106FB000083000F063FA04F10C0000F05FFA20469C
:106FC00010BD00BF4881010010B5064B044640F8D3
:106FD0000C3B00F05DFA04F1080000F059FA20467D
:106FE00010BD00BF48810100012070470020C8800B
:106FF0007047000007B503460A4629B9104B114AED
:1070000011483E210CF00CF8D1E900010DF1080CFB
:107010000CE90300998889B29180D98889B2D1801E
:1070200019681160BDF8042092B29A80BDF806205C
:1070300092B2DA80009A1A6003B05DF804FB00BFD8
:107040009F820100D9820100508201000B684360D9
:107050008B8801600381704738B504460846616833
:10706000154629B90A4B0B4A0B4854210BF0D8FF9F
:107070002389934209D30CF05FF8636822892B447B
:10708000521B63602281002038BD0920FCE700BF4D
:10709000A58201000E8301005082010038B505462B
:1070A0004068144628B90D4B0D4A0E4863210BF079
:1070B000B7FF2B8993420FD30CF03EF86B68234443
:1070C0006B602B89A4B21B1B2B812B68DA881444BC
:1070D000A4B2DC80002038BD0920FCE7A5820100B5
:1070E0004F8301005082010008B102F0DFBF7047FA
:1070F00003F082B8FEE737B50C46079800901146BA
:107100001A46236820461D6E069BA847A06903B057
:1071100030BD006920B14368994201D08068F9E729
:1071200070472DE9F041012A04460F46DDE9065675
:107130000FD8026819469269904750B10368626897
:1071400006929C6832463B462946A446BDE8F0417B
:1071500060470420BDE8F081C1607047036913B93E
:107160000161704713469A68002AFBD19960704705
:10717000002303757047704710B5182104460BF0C3
:1071800040FA204610BD70B505460C4659B140681E
:10719000036804315B699847A86803682146DB6887
:1071A000BDE87040184770BD2DE9FF4104464068B6
:1071B00098460368DB680F461546984790B9E06823
:1071C000036829469B6898470646D0B9A0680368BB
:1071D0009B6898473860F8B96068036829465B691E
:1071E00098470CE061680B6802AE9B683046984790
:1071F00096E8030085E803002B68002BDFD10D26FD
:1072000006E02B6823B16068036829465B699847EC
:10721000304604B0BDE8F081036829469B68984772
:107220000C9A019223680B9A00925D6939680A9B57
:1072300042462046A84706460028E9D0396820463D
:10724000FFF7A1FFE4E72DE9F341099F05680197E6
:10725000089F00972D6904460E469046A8470546AC
:1072600038B120463146FFF78EFF284602B0BDE810
:10727000F081B8F1010FF4D0E0680368311DDB68DC
:1072800098470546EDE710B58CB000230A930693A6
:10729000ADF82C30ADF82E3009AB029308AB01935A
:1072A00007AB00930AAA0DF1170306A90446FFF7DE
:1072B0007BFF50B9099B0193089B00939DF8172011
:1072C000DDE906132046FFF7BEFF0CB010BD10B578
:1072D0000446207D20B12046FFF7D5FF0028F8D0D6
:1072E00010BD037D10B5044643B1C06803689B69B7
:1072F00098472046BDE81040FFF7C5BF0E2010BDDF
:1073000070B504468CB00E460025207D00282FD095
:107310000CA909AB41F8185D029308AB019307ABC8
:1073200000930AAA0DF1170320460A95ADF82C50D8
:10733000ADF82E50FFF738FFD0B99DF81720099B04
:10734000022A17D132689A4209D170680AA904301A
:10735000FFF750FE069803680AA99B6898470699AC
:107360002046FFF710FF3368099A9A42CDD10020DA
:107370000CB070BD0193089B00932046DDE9061315
:10738000FFF761FFC1E7704783680BB1C06818471A
:10739000704710B5202104460BF033F9204610BD8C
:1073A00010B5044628B9144B144A154871210BF046
:1073B00037FE03689B68984703F03CF8114A106851
:1073C000002103463BB1A34212D183420BD1D969BC
:1073D00011600022DA6103F055F80020A061BDE8D9
:1073E000104004F02BB80029F3D0DA69CA61F0E745
:1073F0001946DB69E6E700BFC48301006C84010025
:10740000008401001806002030B5064D0560039D7C
:10741000C0E901510021C0E90313C0E90521C161A0
:1074200030BD00BF6084010013B50446C16003F0A5
:1074300001F8226961680E4804F1180301930332D0
:1074400063690093002908BF01462346C2F38F02F7
:10745000084803F019FF012804D1074B1A6802B14C
:10746000E2611C6002B0BDE8104003F00BB800BF41
:1074700053840100A17300001806002010B50023FA
:1074800004460360012003F079FB2060204610BD14
:1074900010B50446006803F02DFE204610BD08B567
:1074A0004FF0FF31006803F0DBFD003018BF012012
:1074B00008BD08B5006803F073FB003018BF012059
:1074C00008BD10B50023044603606FF0004003F0D0
:1074D00077FA2060204610BD10B50446006803F01E
:1074E00009FE204610BD00231A461946006803F025
:1074F00089BA000007B502A9002341F8043D0068DD
:1075000003F0ECFB019B3BB1054B4FF080521A603E
:10751000BFF34F8FBFF36F8F03B05DF804FB00BF65
:1075200004ED00E008B500684FF47A73B1FBF3F1A5
:1075300003F0D8FC431E5842584108BDF0B54368DB
:1075400087B005460E462BB91E4B1F4A1F483221F5
:107550000BF066FD6868036831469B6898470446EF
:1075600000282CD1A868036831469B689847A86812
:1075700005AA036800921F6E03AA04AB0DF10B016C
:10758000B847AB689B69002BE4D19DF80B30012B09
:1075900015D9022BDED1EC68059A84B1237A63B148
:1075A000236819688A4208D1586831460430FFF7C9
:1075B00021FD201DFFF797FFCCE7E468EDE72046AB
:1075C00007B0F0BDC784010036860100FA840100CF
:1075D00010B529B9084B094A2B2109480BF020FDA9
:1075E000406818B9074B054A2C21F6E70368BDE847
:1075F00010405B69184700BFE580010085860100E7
:10760000FA8401004F850100406810B528B9054B88
:10761000054A064872210BF003FD0368BDE81040DF
:10762000DB681847C7840100EA850100FA8401007D
:1076300010B5064B036000230446C0E90133C0E9DE
:1076400003331430FFF71AFF204610BD6C8501008C
:1076500070B500F114060C4605463046FFF71FFFD3
:10766000002323602372EB68A3420AD1E368EB6036
:107670002B69E36030462C61BDE87040FFF719BF0D
:107680001346002BF4D0DA68A242F9D1E268DA603E
:10769000EEE7000038B505460C4629B9084B094A03
:1076A000094883210BF0BCFC4FF0FF31201DFFF790
:1076B00039FF28462146FFF7CBFF002038BD00BF29
:1076C000A284010088850100FA84010038B50C46C7
:1076D0004CB1E568201DFFF7FFFE204610210AF09F
:1076E00090FF2C46F4E738BD10B5084B0360044604
:1076F000C168FFF7EBFF21692046FFF7E7FF04F1C0
:107700001400FFF7C5FE204610BD00BF6C850100C8
:1077100010B50446FFF7E8FF204618210AF071FF74
:10772000204610BD38B50446002540F8045B2946C4
:10773000FFF7C7FE2572E560204638BD70B50546E7
:1077400000F114063046FFF7AAFE2C696CB9102030
:107750000AF08CF90446FFF7E5FFEB6843B9EC60EB
:107760003046FFF7A6FE204670BDE3682B61F4E7C4
:10777000E360F4E710B50C46FFF7E0FF10B101231A
:107780000460037210BD704710B50C2104460AF066
:1077900038FF204610BD08B1FFF7AABC704737B5C7
:1077A00003680C46D3F8983001AA0431054698477F
:1077B0006068FFF799FC206028B9AB690BB90D230D
:1077C000AB6103B030BD626801990BF0B5FCF8E71E
:1077D0002DE9F74308200C4617469946FFF784FC2D
:1077E000054618B9A3690BB90D23A36129462046A4
:1077F000FFF7D5FFA669EEB9284601F0EDFF3B681B
:1078000080461B69211D38469847064690B9236873
:107810002046DB6898472368CDF800901E690D224A
:10782000012302212046B047236841461B6A2046B7
:107830009847A6692DB12868FFF7ADFF2846FFF7E6
:1078400057FC304603B0BDE8F0832DE9F043082033
:1078500085B00C4617469946FFF746FC054618B911
:10786000A3690BB90D23A36123680DF10F019B6F71
:107870002046984729462046FFF791FFA669FEB9A2
:1078800029469DF80F0001F0B1FF3B6880461B6957
:10789000211D38469847064690B923682046DB6884
:1078A00098472368CDF800901E69022319460D22DF
:1078B0002046B047236841461B6A20469847A66980
:1078C0002DB12868FFF767FF2846FFF711FC304607
:1078D00005B0BDE8F0832DE9FF4708200C4690462F
:1078E0009A46FFF701FC064618B9A3690BB90D23A8
:1078F000A3610820FFF7F8FB054618B9A3690BB987
:107900000D23A36123680DF10E019B6F204698475C
:1079100023680DF10F019B6F2046984731462046A2
:10792000FFF73DFF29462046FFF739FFA7691FBB38
:107930002B4632469DF80F109DF80E0001F08AFF8D
:10794000D8F8003081461B69211D404698470746FC
:1079500090B923682046DB6898472368CDF800A0DB
:107960001F690D22032302212046B8472368494698
:107970001B6A20469847A7692EB13068FFF70BFFB6
:107980003046FFF7B5FB2DB12868FFF704FF284606
:10799000FFF7AEFB384604B0BDE8F0872DE9F04FA5
:1079A0009B460B6889B00C469B6F0DF11501204674
:1079B0009146984723680DF116019B6F2046984722
:1079C000236806A9DB6F20469847236807A91B6F29
:1079D000204698472368DDF81CA0DB6F0DF11A01E3
:1079E0002046984723680DF11701D3F8A4302046AC
:1079F00098479DF81730002B00F0858000252368FC
:107A00000DF11701D3F8A430204698479DF81730A0
:107A1000002B40F086800820FFF766FB074618B968
:107A2000A3690BB90D23A36139462046FFF7B7FEC2
:107A300023680DF11701D3F8A430204698479DF82C
:107A40001730002B6FD10820FFF74EFB064618B900
:107A5000A3690BB90D23A36131462046FFF79FFEB2
:107A6000D4F81880B8F1000F34D1BDF81A30BDF841
:107A700018209DF8161000939DF8150001955FFAE7
:107A80008AF3CDE9027601F0FBFED9F80030824698
:107A90001B69211D484698478046D8B9236820466F
:107AA000DB6898472368CDF800B0D3F810800D222A
:107AB000042302212046C0472DB12368D5E90021C7
:107AC0009B6C20469847236851461B6A204698477E
:107AD000D4F818802DB12868FFF75DFE2846FFF71F
:107AE00007FB2FB13868FFF756FE3846FFF700FB5B
:107AF0002EB13068FFF74FFE3046FFF7F9FA4046E7
:107B000009B0BDE8F08F0820FFF7EEFA054600281F
:107B10007FF475AFA369002B7FF470AF0D23A361D1
:107B20006DE7002784E700269AE730B4013915464F
:107B30001C46029A032917D8DFE801F002070C114E
:107B40002B46214630BCFFF743BE2B46214630BCB6
:107B5000FFF77BBE2B46214630BCFFF7BCBE2B4651
:107B6000214630BCFFF71ABF042030BC704700002C
:107B700003480D220023C0E90123024B0360704734
:107B800020060020CC8601000368D1E900219B6C0F
:107B9000184737B503680C46D3F8983001AA04316A
:107BA000054698476068FFF79FFA206028B9AB69DF
:107BB0000BB90D23AB6103B030BD626801990BF0C6
:107BC000BBFAF8E72DE9F047314D0E462968984693
:107BD0000B6886B0074691469B68002203A8984729
:107BE000049C002C4FD02368039A009200210E229F
:107BF000D3F810A020460123D04738460CF005FCEE
:107C0000236801465B6C3A462046984723685B6DC3
:107C1000002E2BD1012120469847236820461B6B5C
:107C200049469847236820461B6A4146984723687F
:107C30000E991B6B204698472868036803A9DB68E8
:107C40009847236820461B6F02A99847A4692868B3
:107C5000036803A91B699847012221462868FFF79A
:107C6000E6F894B9029806B0BDE8F08700212046F6
:107C7000984730460CF0C9FB236801465B6C3246DE
:107C800020469847C9E70D24E1E74FF0FF30EAE7C7
:107C9000C41700202DE9F047334D0E462968984659
:107CA0000B6886B0814617469B68002203A8984758
:107CB000049C002C53D02368039A0092D3F810A0A0
:107CC0000E22022300212046D04749462046FFF7D6
:107CD0005BFF23685B6D002E34D10121204698475D
:107CE00038460CF092FB23683A4601465B6C20460E
:107CF0009847236820461B6B4146984723680E9996
:107D00001B6A2046984723680F991B6B20469847AB
:107D10002868036803A9DB689847236820461B6F1F
:107D200002A99847A4692868036803A91B699847B2
:107D3000022221462868FFF77AF894B9029806B023
:107D4000BDE8F08700212046984730460CF05DFBE7
:107D5000236801465B6C324620469847C0E70D24F5
:107D6000E1E74FF0FF30EAE7C417002070B5184C88
:107D700021680B6886B09B68002203A89847049D81
:107D80000DB32B68039A009228460E221E6900212B
:107D90000323B0472068036803A9DB6898472B6872
:107DA00028461B6F02A99847AD692068036803A99C
:107DB0001B699847032229462068FFF738F825B940
:107DC000029806B070BD0D25EFE74FF0FF30F8E7E1
:107DD000C417002070B5184C21680B6886B09B68EA
:107DE000002203A89847049D0DB32B68039A0092C4
:107DF00028460E221E6900210423B047206803682C
:107E000003A9DB6898472B6828461B6F02A998478F
:107E1000AD692068036803A91B69984704222946B5
:107E20002068FFF704F825B9029806B070BD0D254B
:107E3000EFE74FF0FF30F8E7C41700202DE9F041DD
:107E40001F4D0F4629680B6886B006469B680022C6
:107E500003A89847049C002C2CD02368039A009216
:107E6000D3F810800E231A4620460021C04723680D
:107E70002046DB6A394698472868036803A9DB680F
:107E8000984720463146FFF784FE236820461B6F43
:107E900002A99847A4692868036803A91B69984741
:107EA0000E2221462868FEF7C2FF2CB9029806B0C0
:107EB000BDE8F0810D24EEE74FF0FF30F7E700BF9B
:107EC000C4170020F0B51C4D29680B6887B0064622
:107ED0009B68002203A89847049C002C26D02368A6
:107EE000039A009220460E221F6900211B23B847E7
:107EF000236820461B6B314698472868036803A90E
:107F0000DB689847236820461B6F02A99847A4693D
:107F10002868036803A91B6998471B222146286823
:107F2000FEF785FF24B9029807B0F0BD0D24EFE7F6
:107F30004FF0FF30F8E700BFC417002070B5184CB1
:107F400021680B6886B09B68002203A89847049DAF
:107F50000DB32B68039A009228460E221E69002159
:107F60001C23B0472068036803A9DB6898472B6887
:107F700028461B6F02A99847AD692068036803A9CA
:107F80001B6998471C2229462068FEF750FF25B937
:107F9000029806B070BD0D25EFE74FF0FF30F8E70F
:107FA000C41700202DE9F0411F4D0E4629680B68CB
:107FB00086B007469B68002203A89847049C002CC3
:107FC0002CD02368039A009220460E22D3F810800A
:107FD00000212823C04720463946FFF7D5FD2368F6
:107FE00020469B6A314698472868036803A9DB68E6
:107FF0009847236820461B6F02A99847A469286800
:10800000036803A91B699847282221462868FEF7C0
:108010000EFF2CB9029806B0BDE8F0810D24EEE702
:108020004FF0FF30F7E700BFC4170020F0B51B4D3D
:1080300029680B6887B006469B68002203A898470A
:10804000049C2CB32368039A009220460E221F69D9
:1080500000213E23B8472868036803A9DB689847D6
:1080600020463146FFF795FD236820461B6F02A985
:108070009847A4692868036803A91B6998473E22AA
:1080800021462868FEF7D3FE24B9029807B0F0BD58
:108090000D24EFE74FF0FF30F8E700BFC4170020D2
:1080A0002DE9F0411F4D0E4629680B6886B0074642
:1080B0009B68002203A89847049C002C2CD02368BE
:1080C000039A009220460E22D3F81080002142230A
:1080D000C04723682046DB6A39469847286803680A
:1080E00003A9DB68984720463146FFF752FD236815
:1080F00020461B6F02A99847A4692868036803A952
:108100001B699847422221462868FEF790FE2CB949
:10811000029806B0BDE8F0810D24EEE74FF0FF3085
:10812000F7E700BFC417002070B5194C21680B6831
:1081300086B09B68002203A89847049D1DB32B6856
:10814000039A009228460E221E6900214323B0475D
:108150002068036803A9DB6898472B682846DB6F13
:108160000DF10A019847AD692068036803A91B69EE
:108170009847432229462068FEF759FE2DB9BDF8DD
:108180000A0006B070BD0D25EEE74FF6FF70F8E768
:10819000C417002070B5184C21680B6886B09B6826
:1081A000002203A89847049D0DB32B68039A009200
:1081B00028460F221E6900210123B047206803686A
:1081C00003A9DB6898472B6828461B6F02A99847CC
:1081D000AD692068036803A91B69984701222946F5
:1081E0002068FEF724FE25B9029806B070BD0D2563
:1081F000EFE74FF0FF30F8E7C4170020F0B51C4D53
:1082000029680B6887B006469B68002203A8984738
:10821000049C002C26D02368039A009220460F224B
:108220001F6900210423B847236820461B6B314691
:1082300098472868036803A9DB68984723682046A5
:108240001B6F02A99847A4692868036803A91B69E2
:108250009847042221462868FEF7E9FD24B90298D0
:1082600007B0F0BD0D24EFE74FF0FF30F8E700BF97
:10827000C4170020F0B51C4D29680B6887B006466E
:108280009B68002203A89847049C002C26D02368F2
:10829000039A009220460F221F6900210523B84748
:1082A000236820461B6B314698472868036803A95A
:1082B000DB689847236820461B6F02A99847A4698A
:1082C0002868036803A91B69984705222146286886
:1082D000FEF7ADFD24B9029807B0F0BD0D24EFE71D
:1082E0004FF0FF30F8E700BFC41700202DE9F04140
:1082F0001F4D0E4629680B6886B007469B68002212
:1083000003A89847049C002C2CD02368039A009261
:1083100020460F22D3F8108000210723C04723688E
:1083200020461B6B394698472868036803A9DB6819
:10833000984720463146FFF72CFC236820461B6FE8
:1083400002A99847A4692868036803A91B6998478C
:10835000072221462868FEF76AFD2CB9029806B06C
:10836000BDE8F0810D24EEE74FF0FF30F7E700BFE6
:10837000C4170020F0B51C4D29680B6887B006466D
:108380009B68002203A89847049C002C26D02368F1
:10839000039A009220460F221F6900210D23B8473F
:1083A000236820461B6B314698472868036803A959
:1083B000DB689847236820461B6F02A99847A46989
:1083C0002868036803A91B6998470D22214628687D
:1083D000FEF72DFD24B9029807B0F0BD0D24EFE79C
:1083E0004FF0FF30F8E700BFC4170020F0B51C4D78
:1083F00029680B6887B006469B68002203A8984747
:10840000049C002C26D02368039A009220460F2259
:108410001F6900210E23B847236820461B6B314695
:1084200098472868036803A9DB68984723682046B3
:108430001B6F02A99847A4692868036803A91B69F0
:1084400098470E2221462868FEF7F1FC24B90298CD
:1084500007B0F0BD0D24EFE74FF0FF30F8E700BFA5
:10846000C41700202DE9F04F2D4D894629681F467D
:108470000B6887B0824690469B68119E002203A835
:108480009847049C002C45D02368039A009220460C
:108490001022D3F810B000210623D84723682046C5
:1084A0001B6A51469847236820461B6A49469847ED
:1084B000236820461B6A4146984720463946FFF705
:1084C00063FB236831681B6B204698472868036864
:1084D00003A9DB68984720461099FFF75AFB2368E9
:1084E0002046D3F8803031469847236820461B6FDA
:1084F00002A99847A4692868036803A91B699847DB
:10850000062221462868FEF792FC2CB9029807B093
:10851000BDE8F08F0D24EEE74FF0FF30F7E700BF26
:10852000C41700202DE9F047274D884629681E46CC
:108530000B6886B0814617469B68002203A89847BF
:10854000049C002C3BD02368039A00922046102202
:10855000D3F810A000210723D047236820461B6AC8
:1085600049469847236820461B6A41469847236836
:1085700020461B6A3946984720463146FFF704FBE0
:1085800023680E991B6B204698472868036803A947
:10859000DB689847236820461B6F02A99847A469A7
:1085A0002868036803A91B699847072221462868A1
:1085B000FEF73DFC2CB9029806B0BDE8F0870D240B
:1085C000EEE74FF0FF30F7E7C4170020F0B51C4D81
:1085D00029680B6887B006469B68002203A8984765
:1085E000049C002C26D02368039A00922046102277
:1085F0001F6900210823B847236820461B6A3146BB
:1086000098472868036803A9DB68984723682046D1
:108610001B6F02A99847A4692868036803A91B690E
:108620009847082221462868FEF701FC24B90298E1
:1086300007B0F0BD0D24EFE74FF0FF30F8E700BFC3
:10864000C41700202DE9F043224D0F4629680B681E
:1086500087B0804616469B68002203A89847049C72
:10866000002C31D02368039A009220461022D3F8C0
:10867000109000210923C847236820461B6A414601
:10868000984720463946FFF77FFA236820461B6B40
:10869000314698472868036803A9DB689847236830
:1086A00020461B6F02A99847A4692868036803A99C
:1086B0001B699847092221462868FEF7B8FB2CB9A8
:1086C000029807B0BDE8F0830D24EEE74FF0FF30CD
:1086D000F7E700BFC41700202DE9F047274D0E46ED
:1086E00029681F460B6886B0814690469B68002229
:1086F00003A89847049C002C3BD02368039A00925F
:1087000020461022D3F810A000210C23D047236864
:1087100020461B6A49469847236820461B6B414602
:108720009847236820461B6A3946984723680E9964
:108730001B6B204698472868036803A9DB689847A5
:1087400020463146FFF725FA236820461B6F02A911
:108750009847A4692868036803A91B6998470C22F5
:1087600021462868FEF763FB2CB9029806B0BDE8E5
:10877000F0870D24EEE74FF0FF30F7E7C417002035
:108780002DE9F043224D0F4629680B6887B08046DB
:1087900016469B68002203A89847049C002C31D001
:1087A0002368039A009220461022D3F810900021EB
:1087B0000F23C847236820461B6A41469847204636
:1087C0003946FFF7E1F9236820461B6A314698478E
:1087D0002868036803A9DB689847236820461B6F55
:1087E00002A99847A4692868036803A91B699847E8
:1087F0000F2221462868FEF71AFB2CB9029807B011
:10880000BDE8F0830D24EEE74FF0FF30F7E700BF3F
:10881000C41700202DE9F043224D0F4629680B684C
:1088200087B0804616469B68002203A89847049CA0
:10883000002C32D02368039A009220461022D3F8ED
:10884000109000211223C847236820461B6A414626
:108850009847236820461B6A394698472368204674
:108860001B6A314698472868036803A9DB68984764
:10887000236820461B6F02A99847A46928680368EB
:1088800003A91B699847122221462868FEF7CFFAF0
:108890002CB9029807B0BDE8F0830D24EEE74FF045
:1088A000FF30F7E7C41700202DE9F04F3D4D894612
:1088B00029681F460B6887B0824690469B68109EC9
:1088C000002203A89847049C002C66D02368039AD2
:1088D0000092D3F810B01022152300212046D8476B
:1088E000236851461B6A2046984723685B6DB9F19F
:1088F000000F32D101212046984723685B6DB8F103
:10890000000F32D101212046984723685B6D002F6C
:1089100033D101212046984723685B6D002E34D166
:108920000121204698472868036803A9DB68984717
:10893000236820461B6F02A99847A469286803682A
:1089400003A91B699847152221462868FEF76FFA8C
:108950002CBB029807B0BDE8F08F20460021984755
:1089600049462046FFF710F9C7E7204600219847FF
:1089700041462046FFF708F9C7E7204600219847FF
:1089800039462046FFF700F9C6E720460021984700
:1089900031462046FFF7F8F8C5E70D24CEE74FF043
:1089A000FF30D7E7C41700202DE9F043224D0F46D2
:1089B00029680B6887B0804616469B68002203A88A
:1089C0009847049C002C32D02368039A00922046DA
:1089D0001022D3F8109000211723C847236820469F
:1089E0001B6A41469847236820461B6A39469847C8
:1089F000236820461B6A314698472868036803A904
:108A0000DB689847236820461B6F02A99847A46932
:108A10002868036803A91B6998471722214628681C
:108A2000FEF705FA2CB9029807B0BDE8F0830D24D3
:108A3000EEE74FF0FF30F7E7C417002070B5184C91
:108A400021680B6886B09B68002203A89847049DA4
:108A50000DB32B68039A0092284610221E6900214C
:108A60001823B0472068036803A9DB6898472B6880
:108A700028461B6F02A99847AD692068036803A9BF
:108A80001B699847182229462068FEF7D0F925B9B6
:108A9000029806B070BD0D25EFE74FF0FF30F8E704
:108AA000C41700202DE9F0472F4D884629681E463F
:108AB0000B6886B0074691469B68002203A898473A
:108AC000049C002C4BD02368039A009200211022B2
:108AD000D3F810A020461A23D04738460BF095FC57
:108AE000236801465B6C3A4620469847236849460E
:108AF0001B6B2046984723685B6D46BB01212046CF
:108B0000984723689DF838109B6A20469847286844
:108B1000036803A9DB68984720464146FFF739F808
:108B2000236820469B6E0DF10B019847A4692868C5
:108B3000036803A91B6998471A2221462868FEF793
:108B400076F974B99DF90B0006B0BDE8F0872046B0
:108B50000021984731462046FFF716F8D1E70D244B
:108B6000E5E74FF0FF30EFE7C4170020704710B57E
:108B70000C21044609F045FD204610BD08B1FEF762
:108B8000B7BA704737B503680C46D3F8983001AAD6
:108B90000431054698476068FEF7A6FA206028B9B8
:108BA000AB690BB90D23AB6103B030BD62680199AD
:108BB0000AF0C2FAF8E738B508200D46FEF794FA35
:108BC000044618B9AB690BB90D23AB6128462146A1
:108BD000FFF7D8FFAD6915B9204601F003F82CB1B5
:108BE0002068FFF7CBFF2046FEF782FA284638BD03
:108BF0002DE9F047082086B00C4691469A46FEF7CC
:108C000073FA064618B9A3690BB90D23A36123684B
:108C100005AAD3F8943004A9204698470498013057
:108C2000FEF762FA8046002854D1A3690BB90D23E0
:108C3000A36131462046FFF7A5FF23680DF10F0120
:108C4000D3F8A430204698479DF80F30002B4AD126
:108C50000820FEF749FA054618B9A3690BB90D2398
:108C6000A36129462046FFF78DFFA769D7B92A4699
:108C70003146404600F0AEFFD9F80030211D1B6997
:108C800048469847074668B923682046DB689847F6
:108C90002368CDF800A01F6902231322194620463D
:108CA000B847A769B8F1000F02D04046FEF720FA96
:108CB0002EB13068FFF762FF3046FEF719FA2DB18A
:108CC0002868FFF75BFF2846FEF712FA384606B021
:108CD000BDE8F087DDE904210AF02EFA049B0022AA
:108CE00008F80320A5E70025BFE72DE9F043082099
:108CF00085B00C4617469946FEF7F6F9054618B9B1
:108D0000A3690BB90D23A361236803A9D3F88030AD
:108D10002046984729462046FFF734FFA669F6B952
:108D20002946039800F068FF3B6880461B69211DB7
:108D300038469847064690B923682046DB6898472E
:108D40002368CDF800901E691322032302212046D8
:108D5000B047236841461B6A20469847A6692DB153
:108D60002868FFF70BFF2846FEF7C2F9304605B02A
:108D7000BDE8F0832DE9FF4708200C4690469A464F
:108D8000FEF7B2F9064618B9A3690BB90D23A36122
:108D90000820FEF7A9F9054618B9A3690BB90D23F8
:108DA000A361236802A9D3F8803020469847314652
:108DB0002046FFF7E7FE29462046FFF7E3FE23683B
:108DC00003A91B6F20469847A7690FBB039B029816
:108DD0002A46314600F012FFD8F8003081461B6960
:108DE000211D40469847074690B923682046DB6816
:108DF00098472368CDF800A01F691322042302219D
:108E00002046B847236849461B6A20469847A76909
:108E10002EB13068FFF7B2FE3046FEF769F92DB18A
:108E20002868FFF7ABFE2846FEF762F9384604B023
:108E3000BDE8F0872DE9F04F87B008200C46924638
:108E40000393FEF751F9804618B9A3690BB90D23B6
:108E5000A3610820FEF748F9074618B9A3690BB9C2
:108E60000D23A3610820FEF73FF9064618B9A36950
:108E70000BB90D23A3610820FEF736F9054618B992
:108E8000A3690BB90D23A361236804A9D3F880302B
:108E90002046984741462046FFF774FE3946204653
:108EA000FFF770FE31462046FFF76CFE294620464C
:108EB000FFF768FE236805A91B6F20469847D4F882
:108EC0001890B9F1000F26D1059B0498CDE9005305
:108ED0003A463346414600F0A4FEDAF800308346B5
:108EE0001B69211D504698478146A0B9236820463A
:108EF000DB6898472368039A0092D3F810901322F6
:108F0000052302212046C847236859461B6A20468C
:108F10009847D4F81890B8F1000F06D0D8F80000A0
:108F2000FFF72CFE4046FEF7E3F82FB13868FFF755
:108F300025FE3846FEF7DCF82EB13068FFF71EFE3E
:108F40003046FEF7D5F82DB12868FFF717FE284602
:108F5000FEF7CEF8484607B0BDE8F08F2DE9FF4791
:108F600008200C4690469A46FEF7BEF8064618B909
:108F7000A3690BB90D23A3610820FEF7B5F80546D8
:108F800018B9A3690BB90D23A361236802A9D3F80B
:108F900080302046984731462046FFF7F3FD2946AA
:108FA0002046FFF7EFFD236803A91B6F2046984773
:108FB000A7690FBB039B02982A46314600F095FE35
:108FC000D8F8003081461B69211D40469847074666
:108FD00090B923682046DB6898472368CDF800A045
:108FE0001F691322062302212046B84723684946F9
:108FF0001B6A20469847A7692EB13068FFF7BEFD6F
:109000003046FEF775F82DB12868FFF7B7FD284602
:10901000FEF76EF8384604B0BDE8F0872DE9F0435E
:10902000082085B00C4617469946FEF75DF80546C0
:1090300018B9A3690BB90D23A361236802A9D3F85A
:1090400080302046984729462046FFF79BFD23683D
:1090500003A91B6F20469847A669FEB9039A029898
:10906000294600F016FE3B6880461B69211D3846E4
:109070009847064690B923682046DB6898472368DE
:10908000CDF800901E691322072302212046B04725
:10909000236841461B6A20469847A6692DB1286877
:1090A000FFF76CFD2846FEF723F8304605B0BDE813
:1090B000F0832DE9FF4708200C4690469A46FEF7BC
:1090C00013F8064618B9A3690BB90D23A36108204C
:1090D000FEF70AF8054618B9A3690BB90D23A36179
:1090E000236803A9D3F880302046984731462046AC
:1090F000FFF748FD29462046FFF744FD23680DF1A0
:109100000A01DB6F20469847A76917BBBDF80A30F4
:1091100003982A46314600F0C4FDD8F80030814655
:109120001B69211D40469847074690B92368204691
:10913000DB6898472368CDF800A01F691322082335
:1091400002212046B847236849461B6A20469847B3
:10915000A7692EB13068FFF711FD3046FDF7C8FF53
:109160002DB12868FFF70AFD2846FDF7C1FF3846F4
:1091700004B0BDE8F0872DE9FF4708200C46904673
:109180009A46FDF7B1FF064618B9A3690BB90D233E
:10919000A3610820FDF7A8FF054618B9A3690BB91C
:1091A0000D23A361236803A9D3F880302046984794
:1091B00031462046FFF7E6FC29462046FFF7E2FC51
:1091C000A76907BB2A463146039800F07DFDD8F811
:1091D000003081461B69211D40469847074690B9DB
:1091E00023682046DB6898472368CDF800A01F69F4
:1091F0001322092302212046B847236849461B6AE7
:1092000020469847A7692EB13068FFF7B7FC304673
:10921000FDF76EFF2DB12868FFF7B0FC2846FDF77B
:1092200067FF384604B0BDE8F08730B40139154611
:109230001C46029A082933D8DFE801F0050A0F140A
:10924000191E23282D002B46214630BCFFF7B3BC46
:109250002B46214630BCFFF7CBBC2B46214630BC09
:10926000FFF743BD2B46214630BCFFF783BD2B469D
:10927000214630BCFFF7DEBD2B46214630BCFFF750
:109280006DBE2B46214630BCFFF7C8BE2B4621469B
:1092900030BCFFF70EBF2B46214630BCFFF76BBF3B
:1092A000042030BC70470000034813220023C0E9AB
:1092B0000123024B0360704730060020E086010066
:1092C00019B10B6808465B681847704770477047CC
:1092D00008B5642000F031FDBDE8084008F09EBBF1
:1092E00008B5054C2046FDF7FCFF0028FAD01420F5
:1092F00000F023FDF6E700BFD017002008B50849AD
:109300001C2009F05FF948B100234360C0E9033332
:109310000381838243818361024B036008BD00BFE8
:109320002CD30100D87D010010B50421044609F0BA
:1093300068F9204610BD10B50421044609F061F912
:10934000204610BD0B681BB1086808B108F094BB3B
:10935000704710B504464FF4805008F089FB4FF475
:1093600080532060A3800023E380204610BD0000CE
:1093700010B5074B0360044600F58A500430FEF731
:10938000ABF804F589501C30FEF7A6F8204610BD56
:109390003C7D01000148FDF7D8B800BF4006002021
:1093A000FFF7F8BFFFF7F6BFFFF7F4BF10B50446AD
:1093B000FEF7DEFB01462046FDF7D0FEFFF774FF07
:1093C00001462046BDE81040FDF7C8BEF7B5364E51
:1093D000364C374F374900250223CDE9003554225A
:1093E00055233046FDF7A0F822463349304609F0B0
:1093F00003F931464FF416223846FDF735FA224676
:109400002E492F4E384609F0F7F82E482E4B2F499B
:109410000360224609F0F0F82D482E4B2E490360D8
:10942000224609F0E9F83046FEF702F922462B49B8
:10943000304609F0E1F82A482A4B2B490360C0E97D
:109440000155C0E90355294D294E012322460375D4
:1094500009F0D2F82846FDF7F6FC224625492846B1
:10946000254D09F0C9F8254B009309224FF400530C
:1094700023492846FDF7C8FF224631462846214D9C
:1094800009F0BAF8204B009307224FF4A0431F497C
:109490002846FDF7B9FF22463146284603B0BDE80D
:1094A000F04009F0A9B800BF4006002000000020ED
:1094B000E817002058370020719300000163000076
:1094C000A8170020CC1700200C870100CD920000C7
:1094D000C0170020F4860100CF920000E97600005A
:1094E000D0170020A083010077710000C81700206A
:1094F000877300004F6E00000018002024870100D1
:10950000E1920000881700202E870100D192000010
:109510002DE9F8430121502008F0AEFE0021502033
:1095200008F0EEFE642000F008FC254C254EDFF824
:10953000B080254F254DDFF8AC900121502008F078
:10954000DFFE642000F0F9FB2046FCF764FE746047
:109550004046FFF7D3FEB060242008F087FA0024CD
:109560001B4A02603146C0E90144C0E90344C0E936
:109570000544C46104623860FCF743FE3B6815494A
:10958000C3F80880C3F804903046FEF721F831464E
:109590002846114EFDF7E0FD2846C5E90198FFF782
:1095A00005FF21463046FDF73FFF21460B48FDF7FA
:1095B0003BFF3B68B2699D61DA61BDE8F88300BF9B
:1095C000E8170020A8170020C4170020D01700209B
:1095D0008C7C0100C817002000180020881700208C
:1095E000C0170020CC17002008B54FF4E131044823
:1095F00006F0AEFDFFF78CFF01F090FFFEE700BF25
:10960000B83700202DE9F041804686B00D461F4650
:1096100016463AB30820FDF767FD082306600446A6
:109620004760049005939DF830300093324604ABB8
:1096300002A94046FFF736FA029B0646294603F187
:10964000140253F8040B41F8040B9342F9D120465D
:10965000FDF74EFD029808B1FDF74AFD304606B011
:10966000BDE8F0810420FDF73FFD042307600446B8
:109670000490D7E713B502240094FFF7C3FF02B0AC
:1096800010BDFFF7DBB970B586B01D460A9B029589
:109690001C68019304AB009302AB0394FEF7E2FE57
:1096A000DDE9044206462146284609F045FD2046EC
:1096B000FDF71EFD304606B070BD1FB5069C009438
:1096C000CDE9023402ABFEF72DFF04B010BDFEF76A
:1096D0007DBF07B51023009169460193FEF7B2FFE5
:1096E00003B05DF804FB30B50D4685B00A21514347
:1096F000009102A9FEF7F0FF041E04DDDDE902126D
:10970000284609F019FD029808B1FDF7F1FC204642
:1097100005B030BD07B5CDE900121A466946FFF71E
:109720002FF803B05DF804FBFFF774B82DE9F74399
:10973000DDF82880814615461C460E4600293DD09E
:109740000820FDF7D1FC0823074606604360BDB33F
:109750000820FDF7C9FC08230646056043608CB36A
:109760000820FDF7C1FC0823054604604360B8F1FA
:10977000000F29D00820FDF7B7FC10230446C0F8DD
:109780000080436000942B46324639464846FFF736
:109790008BF8804617B13846FDF7AAFC16B1304663
:1097A000FDF7A6FC15B12846FDF7A2FC14B1204632
:1097B000FDF79EFC404603B0BDE8F0830F46C6E7C8
:1097C0002E46CCE72546D2E74446DBE7FFF7ECB868
:1097D00040BA80B27047000008B5034B1B680BB15C
:1097E00000689847002008BD2C18002070B5054679
:1097F00004200E4609F07EFC142D044607D018D82C
:10980000032D04D011D8012D01D0022D01D13368D0
:1098100023600F4B1B68CBB128462146984705466D
:10982000204609F06FFC284670BD102DEFD0132D97
:10983000ECE7172DEBD003D8152DE8D0162DE5E772
:10984000302DE4D0402DE2D0192DDFE71D46E7E7AB
:109850002018002010B412685478022C07D0042C71
:1098600005D0064B1B682BB15DF8044B18471B68ED
:10987000D360F6E718465DF8044B704724180020C3
:109880002DE9F84F81460C208A4693461D46BDF8C7
:109890002860DDE90B7809F02DFC022D0446A0F8C4
:1098A00002B080F801A01DD0032D21D0012D01D1DF
:1098B000057086801B4B1E681EB121464846B04786
:1098C0000646022D08D1A568D5B90120FDF70CFC8C
:1098D0000123057038607B60204609F013FC304698
:1098E000BDE8F88F002305708680C380A360E1E7A0
:1098F000D8F80430C38005700671D8F80030F5E759
:10990000E0887860FDF7F0FB054630B9012078600B
:10991000FDF7EAFB05463D60DEE77A68A16809F0DD
:109920000BFCF8E728180020044B1B68032B03D11D
:10993000431E58425841704700207047301800209D
:10994000037881F8343083890B87C389CB86038AF7
:109950004B87438AA1F85230838AA1F8803083690B
:10996000C1F8C030C369C1F8C43043680B6000233C
:109970000B7482684A6181F82430704710B4002368
:10998000144601930A46029B21465DF8044BFEF7FC
:1099900019B930B585B004AC1D46062344F8080D4E
:1099A0000393002301930B9B0093204613462A4602
:1099B000FEF770F905B030BDFEF7D8B9FEF70ABA68
:1099C00073B5054668460E46FEF738FA044620B9D8
:1099D00032460099284609F0AFFB009808B1FDF720
:1099E00087FB204602B070BD014B1860FEF76ABAD3
:1099F00030180020024B00221A60FEF79FBA00BF09
:109A00003018002007B5920000900978019268464E
:109A1000FEF7C8FA03B05DF804FB73B5044678B1ED
:109A20006846FEF703FB009E05469C223146204611
:109A300009F082FB3046FDF75BFB284602B070BDA3
:109A40000546FAE7FEF770BB3C282DE9F74F28BF23
:109A50003C2005460E4629B94FF0FF34204603B09E
:109A6000BDE8F08F6946FEF71BFB04460028F3D1E2
:109A70000098314606EB851C324E03464FF0020833
:109A80004FF0060903274FF0040E8C4554D01A46B8
:109A900003F1210A52F8225F0D6092888A808D1DA1
:109AA0005A1C52F804BB45F804BB5245F9D1127850
:109AB0002A70B3F9282081F82920D3F8362081F8BC
:109AC0002720D3F82E20204DAA4232D00CD8012ACC
:109AD0002DD01BD348F20105AA4228D01B4DAA4223
